{
    "contractName": "StudyDataUpload",
    "abi": [
        {
            "constant": true,
            "inputs": [
                {
                    "name": "",
                    "type": "uint256"
                },
                {
                    "name": "",
                    "type": "uint256"
                }
            ],
            "name": "studies",
            "outputs": [
                {
                    "name": "time",
                    "type": "uint256"
                },
                {
                    "name": "fileHash",
                    "type": "string"
                }
            ],
            "payable": false,
            "stateMutability": "view",
            "type": "function"
        },
        {
            "constant": false,
            "inputs": [
                {
                    "name": "studyID",
                    "type": "uint256"
                },
                {
                    "name": "fileHash",
                    "type": "string"
                }
            ],
            "name": "addStudy",
            "outputs": [],
            "payable": false,
            "stateMutability": "nonpayable",
            "type": "function"
        },
        {
            "constant": true,
            "inputs": [
                {
                    "name": "studyID",
                    "type": "uint256"
                }
            ],
            "name": "getNumDataForStudy",
            "outputs": [
                {
                    "name": "",
                    "type": "uint256"
                }
            ],
            "payable": false,
            "stateMutability": "view",
            "type": "function"
        },
        {
            "constant": false,
            "inputs": [
                {
                    "name": "studyID",
                    "type": "uint256"
                },
                {
                    "name": "index",
                    "type": "uint256"
                }
            ],
            "name": "getSpecificDataUpload",
            "outputs": [
                {
                    "name": "",
                    "type": "uint256"
                },
                {
                    "name": "",
                    "type": "string"
                }
            ],
            "payable": false,
            "stateMutability": "nonpayable",
            "type": "function"
        }
    ],
    "bytecode": "0x608060405234801561001057600080fd5b506105dc806100206000396000f300608060405260043610610061576000357c0100000000000000000000000000000000000000000000000000000000900463ffffffff168062a2725f146100665780634458fd44146100d95780635383d2081461019057806353fee6fb14610247575b600080fd5b34801561007257600080fd5b506100d760048036038101908080359060200190929190803590602001908201803590602001908080601f0160208091040260200160405190810160405280939291908181526020018383808284378201915050505050509192919290505050610288565b005b3480156100e557600080fd5b5061010e6004803603810190808035906020019092919080359060200190929190505050610308565b6040518083815260200180602001828103825283818151815260200191508051906020019080838360005b83811015610154578082015181840152602081019050610139565b50505050905090810190601f1680156101815780820380516001836020036101000a031916815260200191505b50935050505060405180910390f35b34801561019c57600080fd5b506101c560048036038101908080359060200190929190803590602001909291905050506103e0565b6040518083815260200180602001828103825283818151815260200191508051906020019080838360005b8381101561020b5780820151818401526020810190506101f0565b50505050905090810190601f1680156102385780820380516001836020036101000a031916815260200191505b50935050505060405180910390f35b34801561025357600080fd5b50610272600480360381019080803590602001909291905050506104ec565b6040518082815260200191505060405180910390f35b6000808381526020019081526020016000206040805190810160405280428152602001838152509080600181540180825580915050906001820390600052602060002090600202016000909192909190915060008201518160000155602082015181600101908051906020019061030092919061050b565b505050505050565b60006020528160005260406000208181548110151561032357fe5b906000526020600020906002020160009150915050806000015490806001018054600181600116156101000203166002900480601f0160208091040260200160405190810160405280929190818152602001828054600181600116156101000203166002900480156103d65780601f106103ab576101008083540402835291602001916103d6565b820191906000526020600020905b8154815290600101906020018083116103b957829003601f168201915b5050505050905082565b600060606000808581526020019081526020016000208381548110151561040357fe5b9060005260206000209060020201600001546000808681526020019081526020016000208481548110151561043457fe5b9060005260206000209060020201600101808054600181600116156101000203166002900480601f0160208091040260200160405190810160405280929190818152602001828054600181600116156101000203166002900480156104da5780601f106104af576101008083540402835291602001916104da565b820191906000526020600020905b8154815290600101906020018083116104bd57829003601f168201915b50505050509050915091509250929050565b6000806000838152602001908152602001600020805490509050919050565b828054600181600116156101000203166002900490600052602060002090601f016020900481019282601f1061054c57805160ff191683800117855561057a565b8280016001018555821561057a579182015b8281111561057957825182559160200191906001019061055e565b5b509050610587919061058b565b5090565b6105ad91905b808211156105a9576000816000905550600101610591565b5090565b905600a165627a7a72305820996f10c763b29c5283c13abf1f3a32c4f67cb6181e19fef4c232058376ed50340029",
    "source": "pragma solidity ^0.4.24;\n\ncontract StudyDataUpload {\n    struct StudyData {\n        uint time;\n        string fileHash;\n    }\n\n    mapping (uint256 => StudyData[]) public studies;\n    \n    function addStudy ( uint256 studyID, string fileHash) public {\n        studies[studyID].push(StudyData(now, fileHash));\n    }\n\n    function getNumDataForStudy ( uint256 studyID ) public constant returns (uint) {\n        return studies[studyID].length;\n    }\n\n    function getSpecificDataUpload ( uint256 studyID, uint index ) public returns (uint, string) {\n        return (studies[studyID][index].time, studies[studyID][index].fileHash);\n    }\n\n}",
    "sourcePath": "/Users/melanie/blockchain-results/upload-plain-contracts/contracts/StudyDataUpload.sol",
    "compiler": {
        "name": "solc",
        "version": "0.4.24+commit.e67f0147.Emscripten.clang"
    },
    "schemaVersion": "2.0.1",
    "updatedAt": "2018-10-19T21:50:30.286Z"
}